:020000005F2B74
:10000800DF00030E8301BA000A08B9008A0150080C
:10001800A1000B1D412883120B119C308100B00AEE
:100028000319B10A80303106D000803033065002FF
:10003800031D202832083002031824288516412879
:1000480080303106D000803033065002031D2E2840
:1000580032083002031C3F2880303106D00080303F
:10006800033A5002031D3A28FF30300203183F2894
:10007800831285124128B001B1012108D000390846
:0C0088008A003A0E8300DF0E5F0E0900B4
:100094008312C001C1013B08C2003C08C300803088
:1000A4003C06D00080305002031D5A2800303B0229
:1000B400031868280130C0000030C1003B08003C30
:1000C400C2003C08031C013EC301C3024208C40031
:1000D4004308C5003D08C60056220630BE00003065
:1000E400BF003F08003C031D79283E08003C03186C
:1000F40094283E083D07D20001303E02D000003073
:10010400031C013E3F02D10050083D078400000853
:10011400D00052088400500880000130BE02031C45
:10012400BF0373283D088400203080004008410448
:100134000319B228BE01BF013E083D078400000830
:10014400203A031DA928BE0A0319BF0A9E280130BC
:10015400BE02031CBF033E083D0784002D3080000F
:02016400080091
:1001660083120313DB015308031D570803190A29D9
:1001760052085606DA005708D3077E30031CC728F4
:10018600D30203180D29CA28D302031C10295208CA
:10019600D8005108DC005008DD00D817D617031028
:1001A600D201D101D0011830A0005D1CE42854080A
:1001B600D00755080318550FD10756080318560FD0
:1001C600D207D20CD10CD00CD80CDC0CDD0C0310F1
:1001D600A00BD828D21BF428D80DD00DD10DD20DE6
:1001E600D3035B1B501C0629D81F0629D00A031906
:1001F600D10A0319D20A031D0629D20CD10CD00C40
:10020600D30A03190D29DA1FD2130030122901303F
:10021600D0231229023090231229043084230000AF
:020226000800CE
:1002280083120313DB015308031951295208DA001A
:10023800D2178E30D302D31F5429D309D30A0830DA
:100248005302031C3729D300D10D5208D100D20123
:1002580008305302031C3729D300D10DD1015308AC
:10026800031D03103F29530803193F290310D20C1B
:10027800D10CD30B3A295B1B511C4929031C492972
:10028800D10A0319D20AD21B6029DA1F6329D209BD
:10029800D109D10A0319D20A6329D201D1016329EC
:1002A8005B14DB1F6629D201DA1F6629FF30D200F2
:1002B800D100DA0DD20C66290130DC006829003043
:1002C800DC006829FF30DC00DC0803196C2977237F
:0A02D8005108D0005208D1000800C0
:1002E2008312BB0101235008B5005108B600500823
:1002F200B2005108B30024235230D400B830D500E4
:100302003E30D6008030D700B32014215008B5000B
:100312005108B6005008BB005108BC002230BD0095
:100322004A202408A9002508AA002E30AB0026087E
:10033200AC002708AD005630AE000130BB000130E2
:10034200BC002930BD0095220130BB0001235008BA
:10035200B5005108B6002423EC30D4005130D5004A
:100362007830D6007F30D700B32014215008B50072
:100372005108B6005008BB005108BC002230BD0035
:100382004A200230BB000130BC002230BD00952261
:02039200080061
:10039400831607128712871107118710071083121B
:1003A4000712871207108710071187119C239C23BB
:1003B4009C23071587150716EB2307129C230716A2
:1003C400EB2307129C230716EB2307129C238711A8
:1003D4000716EB2307129C230716EB2307120711BA
:1003E40007140716EB2307129C230710871507161B
:1003F400EB23071287110716EB2307129C2307161A
:10040400EB23071287150716EB2307129C2387118A
:100414000716EB2307120714871407158715071609
:0A042400EB2307129C233414080098
:10042E008312C91B1C2A07101D2A0714491B212AD7
:10043E008710222A8714C91A262A0711272A071578
:10044E00491A2B2A87112C2A87153418302A871619
:10045E00312A87120716EB230712C919382A0710FB
:10046E00392A071449193D2A87103E2A8714C918BC
:10047E00422A0711432A07154918472A8711482A85
:10048E00871534184C2A87164D2A87120716EB2328
:0E049E000712341C542A9C23552AC22308003E
:1004AC008312C701053047020318632A4708460721
:1004BC00840020308000C70A582A47084607840069
:1004CC008001C70347084607C8000A30D400D5018D
:1004DC004408D0004508D10042235808D0005908E0
:1004EC00D1003030D00748088400500880000A3012
:1004FC00D400D5014408D0004508D100422350084F
:10050C00C4005108C50000305106031D8F2A00306D
:0E051C005006031D922A942AC703682A08007D
:10052A00A62A80308312BB00B72AC030BB00B72A84
:10053A009430BB00B72AD430BB00B72A8030BB0046
:10054A00B72A3B08013A0319962A3B08023A0319CB
:10055A009A2A3B08033A03199D2A3B08043A0319CD
:10056A00A02AA32A3C03D0003B08D0075008BB00AE
:10057A005008C90017223410BE013E083D07840006
:10058A0000080319D02A3E083D0784000008C40069
:0A059A00C923BE0AC22A3414080067
:1005A400A0015208031DE72A5108D2005008D100C7
:1005B400D001A0155208031DE72A5108D200D10129
:1005C400A011201652080319F52A2008D302031D8E
:1005D400031CF92A0310D21BFD2AD00DD10DD20D14
:1005E400D30BED2AF92A0130DC00D023002B023092
:0E05F400DC008423002B0430DC00E32308002D
:10060200C33083129F0540309F05F03083169F044C
:1006120083129F173B08D000D00D5010D00D501000
:1006220050089F041F14DD239F149F1C1A2B0000E7
:10063200162B1F101E08D100D00183161E08D004ED
:060642000030D1040800A5
:10064800831203135008D8005108D000D101D201F9
:10065800D301DB01DC019630D300DA01D01F3A2B3D
:10066800D809D009D80A0319D00ADA175008D100D6
:0C0678005808D000D801D201D22208009E
:1006840083120313D801D9011030DC00510DD80DA9
:10069400D90D5408D8025508031C550FD902031864
:1006A4005A2B5408D80755080318550FD9070310B7
:0A06B400D00DD10DDC0B482B08001F
:1006BE008312A201A301A401A501A601A701A8010D
:1006CE00A901AA01AB01AC01AD01AE01AF01B001B0
:1006DE00B101BB23B22371217121E723732B762B3A
:1006EE005B14DB1F822BD201DA1FFF30D200D10048
:0A06FE00D000DA0DD20CFF30080026
:100708005B15DB1F8E2B0130D300D201D101D00144
:08071800DA0DD20CFF300800DD
:10072000DB14DB1F9A2BFF30D300D200D100D000A6
:08073000DA0DD20CFF300800C5
:1007380008308312DC002330DD00DD0BA12BDC0B3D
:04074800A12B0800D9
:10074C00D7238A110A128000840AB70A0319B80A3F
:08075C00D003031DA62B0800C9
:100764008830831681009C3083128100A0308B0076
:0207740008007B
:0E07760083160512851203309100CA21080077
:0E07840010308312DD00DD0BC52B00000800D5
:0E079200831234104408C900172234140800E2
:0E07A000D201D101D001D801D30100300800F0
:0C07AE00831238088A0037088200080017
:0C07BA0007308312DD00DD0BE02B08008F
:0807C600DA1FD2130030080015
:0807CE001030831285060800BB
:0407D6000000080017
:02400E00C431BB
:00000001FF
